:020000040000FA
:100000000C9462000C948A000C948A000C948A0070
:100010000C948A000C948A000C948A000C948A0038
:100020000C948A000C948A000C948A000C948A0028
:100030000C948A000C948A000C948A000C948A0018
:100040000C940E030C948A000C947E030C945803B9
:100050000C948A000C948A000C948A000C948A00F8
:100060000C948A000C948A000000000023002600F3
:10007000290000000000240027002A0000000000E2
:10008000250028002B0004040404040404040202D4
:100090000202020203030303030301020408102007
:1000A0004080010204081020010204081020000012
:1000B0000008000201000003040700000000000027
:1000C0000000F30411241FBECFEFD8E0DEBFCDBF88
:1000D00011E0A0E0B1E0E4E9FAE002C005900D9281
:1000E000A236B107D9F722E0A2E6B1E001C01D9225
:1000F000A930B207E1F710E0C2E6D0E004C02197D2
:10010000FE010E944205C136D107C9F70E94B00323
:100110000C9448050C940000833081F028F4813061
:1001200099F08230A9F008958730A9F08830C9F09D
:100130008430B1F4809180008F7D03C08091800075
:100140008F7780938000089584B58F7784BD08955C
:1001500084B58F7DFBCF8091B0008F778093B00006
:1001600008958091B0008F7DF9CF1F93CF93DF93D7
:10017000282F30E0F901E255FF4F8491F901E6564E
:10018000FF4FD491F901EA57FF4FC491CC23A9F056
:10019000162F81110E948C00EC2FF0E0EE0FFF1F54
:1001A000E458FF4FA591B4918FB7F894EC911111D9
:1001B00008C0D095DE23DC938FBFDF91CF911F91D4
:1001C0000895DE2BF8CFCF93DF9390E0FC01E65645
:1001D000FF4F24918A579F4FFC0184918823D1F0CF
:1001E00090E0880F991FFC01EE58FF4FA591B49144
:1001F000FC01E458FF4FC591D491623071F49FB770
:10020000F8943C91822F809583238C93E8812E2B48
:1002100028839FBFDF91CF9108958FB7F894EC9119
:100220002E2B2C938FBFF6CF8E50806480937C0052
:1002300080917A00806480937A0080917A0086FDB4
:10024000FCCF809178009091790008953FB7F894A1
:100250008091680190916901A0916A01B0916B0150
:1002600026B5A89B05C02F3F19F00196A11DB11D11
:100270003FBFBA2FA92F982F8827BC01CD01620F4D
:10028000711D811D911D42E0660F771F881F991F08
:100290004A95D1F708958F929F92AF92BF92CF92D5
:1002A000DF92EF92FF920E9426014B015C0184EFE6
:1002B000C82EDD24D394E12CF12C0E94260168196C
:1002C00079098A099B09683E734081059105A8F365
:1002D00021E0C21AD108E108F10888EE880E83E017
:1002E000981EA11CB11CC114D104E104F10429F72A
:1002F000FF90EF90DF90CF90BF90AF909F908F9046
:100300000895AF92BF92CF92DF92EF92FF920F9338
:100310001F93CF93DF936C017B018B01040F151F9B
:10032000EB015E01AE18BF08C017D10759F0699103
:10033000D601ED91FC910190F081E02DC601099567
:10034000892B79F7C501DF91CF911F910F91FF9014
:10035000EF90DF90CF90BF90AF900895FC01538D48
:10036000448D252F30E0842F90E0821B930B54178F
:1003700010F0CF96089501970895FC01918D828D1C
:10038000981761F0A28DAE0FBF2FB11D5D968C91B5
:10039000928D9F5F9F73928F90E008958FEF9FEFF4
:1003A0000895FC01918D828D981731F0828DE80FB0
:1003B000F11D858D90E008958FEF9FEF0895FC016A
:1003C000918D228D892F90E0805C9F4F821B910937
:1003D0008F73992708958CE691E00E94DF0121E058
:1003E000892B09F420E0822F089580E090E0892B8A
:1003F00029F00E94EB0181110C9400000895FC018A
:10040000A48DA80FB92FB11DA35ABF4F2C91848D75
:1004100090E001968F739927848FA689B7892C93D2
:10042000A089B1898C91837080648C93938D848D25
:10043000981306C00288F389E02D80818F7D808328
:100440000895EF92FF920F931F93CF93DF93EC01E8
:1004500081E0888F9B8D8C8D98131AC0E889F9896B
:10046000808185FF15C09FB7F894EE89FF8960836E
:10047000E889F98980818370806480839FBF81E0EF
:1004800090E0DF91CF911F910F91FF90EF90089531
:10049000F62E0B8D10E00F5F1F4F0F731127E02E0C
:1004A0008C8D8E110CC00FB607FCFACFE889F98944
:1004B000808185FFF5CFCE010E94FF01F1CFEB8D4A
:1004C000EC0FFD2FF11DE35AFF4FF0829FB7F89418
:1004D0000B8FEA89FB8980818062CFCFCF93DF9336
:1004E000EC01888D8823B9F0AA89BB89E889F9894C
:1004F0008C9185FD03C0808186FD0DC00FB607FC81
:10050000F7CF8C9185FFF2CF808185FFEDCFCE01B3
:100510000E94FF01E9CFDF91CF910895FC01019086
:100520000020E9F73197AF01481B590BBC018CE65D
:1005300091E00C9481018F929F92AF92BF920F93A2
:100540001F93CF93DF93CDB7DEB7A1970FB6F89483
:10055000DEBF0FBECDBF19A2423008F44AE08E01C3
:100560000F5D1F4F842E912CB12CA12CA50194015D
:100570000E942005E62FB901CA01EA30F4F4E05DDB
:10058000D801EE938D01232B242B252B79F790E0B6
:1005900080E0109719F0CD010E948E02A1960FB64F
:1005A000F894DEBF0FBECDBFDF91CF911F910F91A9
:1005B000BF90AF909F908F900895E95CE1CFCF926C
:1005C000DF92EF92FF92CF93DF936B017C016DE29C
:1005D0008CE691E00E942102EC0166277727CB018F
:1005E0006C197D098E099F094AE00E949B028C0FBD
:1005F0009D1FDF91CF91FF90EF90DF90CF900895F6
:10060000CF93DF930E948E02EC0182E191E00E9481
:100610008E028C0F9D1FDF91CF9108951F920F9234
:100620000FB60F9211242F933F938F939F93AF9305
:10063000BF938091640190916501A0916601B09192
:1006400067013091630123E0230F2D3758F50196A0
:10065000A11DB11D209363018093640190936501F6
:10066000A0936601B0936701809168019091690140
:10067000A0916A01B0916B010196A11DB11D8093FB
:10068000680190936901A0936A01B0936B01BF91D7
:10069000AF919F918F913F912F910F900FBE0F902F
:1006A0001F90189526E8230F0296A11DB11DD2CFE9
:1006B0001F920F920FB60F9211242F933F934F93D7
:1006C0005F936F937F938F939F93AF93BF93EF93BA
:1006D000FF938CE691E00E94FF01FF91EF91BF91A3
:1006E000AF919F918F917F916F915F914F913F91CA
:1006F0002F910F900FBE0F901F9018951F920F9281
:100700000FB60F9211242F938F939F93EF93FF9324
:10071000E0917C01F0917D018081E0918201F09176
:10072000830182FD1BC09081809185018F5F8F7353
:1007300020918601821741F0E0918501F0E0E459B3
:10074000FE4F958F80938501FF91EF919F918F913F
:100750002F910F900FBE0F901F9018958081F4CFAE
:10076000789484B5826084BD84B5816084BD85B58C
:10077000826085BD85B5816085BD80916E00816098
:1007800080936E001092810080918100826080933E
:100790008100809181008160809381008091800040
:1007A0008160809380008091B10084608093B1006B
:1007B0008091B00081608093B00080917A00846065
:1007C00080937A0080917A00826080937A00809191
:1007D0007A00816080937A0080917A0080688093AB
:1007E0007A001092C10061E088E00E94E30061E0BD
:1007F00089E00E94E30061E08AE00E94E30062E099
:100800008CE00E94E30060E08AE00E94B50060E0B6
:1008100088E00E94B50060E089E00E94B500E091A8
:100820007C01F0917D0182E08083E0917801F0917C
:1008300079011082E0917A01F0917B018FEC808345
:1008400010928401E0918001F091810186E0808323
:10085000E0917E01F0917F01808180618083E09151
:100860007E01F0917F01808188608083E0917E012C
:10087000F0917F01808180688083E0917E01F0911A
:100880007F0180818F7D808385E191E00E9400035C
:100890009AEBE92E90E0F92E26EAC22E20E0D22E25
:1008A00032E9A32E30E0B32E40E0842E40E0942EB7
:1008B0008EE00E9414018C018FE00E941401EC0173
:1008C00085E291E00E948E02B801012E000C880B97
:1008D000990B97FF66C00E94DF028CE291E00E94B4
:1008E0008E02BE010D2E000C880B990B97FF5DC088
:1008F0000E94DF0282E191E00E948E02109262016A
:10090000093512400CF455C061E088E00E94B50042
:1009100081E08093620185E391E00E940003C93584
:10092000D2400CF44BC061E089E00E94B50081E048
:100930008093620189E491E00E940003809162014A
:1009400061E0811101C060E08AE00E94B500F7011A
:100950008491F601D491F501C491C11134C0109273
:10096000620160E08AE00E94B50060E088E00E94D9
:10097000B50060E089E00E94B50085E591E00E9445
:1009800000030E944B010E944B018114910409F461
:100990008FCF0E94EB01882309F48ACF0E940000C8
:1009A00087CF4AE00E949B0298CF4AE00E949B02B8
:1009B000A1CF60E088E00E94B500B1CF60E089E09F
:1009C0000E94B500BBCF81110E948C00EC2FF0E09B
:1009D000EE0FFF1FE859FF4FA591B4918C91D823DA
:1009E00009F4BDCFD0CFECE6F1E01382128288EE9D
:1009F00093E0A0E0B0E084839583A683B78384E08E
:100A000091E09183808385EC90E09587848784ECE6
:100A100090E09787868780EC90E0918B808B81ECCB
:100A200090E0938B828B82EC90E0958B848B86ECAC
:100A300090E0978B868B118E128E138E148E0895F4
:100A4000A1E21A2EAA1BBB1BFD010DC0AA1FBB1FD2
:100A5000EE1FFF1FA217B307E407F50720F0A21B44
:100A6000B30BE40BF50B661F771F881F991F1A94B1
:100A700069F760957095809590959B01AC01BD01DB
:100A8000CF010895EE0FFF1F0590F491E02D09941A
:100A9000F894FFCF0000000021028101AE016E0238
:100AA000DF01BD01D1010D0A0053797374656D201A
:100AB00053746172746564210054656D703A20004E
:100AC000207C204761733A200054454D50455241E7
:100AD000545552452044414E474552210047415309
:100AE0002044414E4745522100416C61726D2052B5
:060AF0006573657421002E
:107E0000112484B714BE81FFF0D085E080938100F7
:107E100082E08093C00088E18093C10086E0809377
:107E2000C20080E18093C4008EE0C9D0259A86E02C
:107E300020E33CEF91E0309385002093840096BBD3
:107E4000B09BFECF1D9AA8958150A9F7CC24DD24C4
:107E500088248394B5E0AB2EA1E19A2EF3E0BF2EE7
:107E6000A2D0813461F49FD0082FAFD0023811F036
:107E7000013811F484E001C083E08DD089C08234E0
:107E800011F484E103C0853419F485E0A6D080C0E4
:107E9000853579F488D0E82EFF2485D0082F10E0AE
:107EA000102F00270E291F29000F111F8ED06801E7
:107EB0006FC0863521F484E090D080E0DECF843638
:107EC00009F040C070D06FD0082F6DD080E0C81688
:107ED00080E7D80618F4F601B7BEE895C0E0D1E017
:107EE00062D089930C17E1F7F0E0CF16F0E7DF06D8
:107EF00018F0F601B7BEE89568D007B600FCFDCFD4
:107F0000A601A0E0B1E02C9130E011968C91119780
:107F100090E0982F8827822B932B1296FA010C0160
:107F200087BEE89511244E5F5F4FF1E0A038BF0790
:107F300051F7F601A7BEE89507B600FCFDCF97BE46
:107F4000E89526C08437B1F42ED02DD0F82E2BD052
:107F50003CD0F601EF2C8F010F5F1F4F84911BD097
:107F6000EA94F801C1F70894C11CD11CFA94CF0C13
:107F7000D11C0EC0853739F428D08EE10CD085E9AC
:107F80000AD08FE07ACF813511F488E018D01DD067
:107F900080E101D065CF982F8091C00085FFFCCF94
:107FA0009093C60008958091C00087FFFCCF809118
:107FB000C00084FD01C0A8958091C6000895E0E648
:107FC000F0E098E1908380830895EDDF803219F02E
:107FD00088E0F5DFFFCF84E1DECF1F93182FE3DFCA
:107FE0001150E9F7F2DF1F91089580E0E8DFEE27F6
:047FF000FF270994CA
:027FFE00040479
:00000001FF
